{
    "contractName": "SimpleAuction",
    "abi": [
        {
            "inputs": [
                {
                    "internalType": "uint256",
                    "name": "_biddingTime",
                    "type": "uint256"
                },
                {
                    "internalType": "address payable",
                    "name": "_benificiary",
                    "type": "address"
                }
            ],
            "stateMutability": "nonpayable",
            "type": "constructor"
        },
        {
            "anonymous": false,
            "inputs": [
                {
                    "indexed": false,
                    "internalType": "address",
                    "name": "winner",
                    "type": "address"
                },
                {
                    "indexed": false,
                    "internalType": "uint256",
                    "name": "amount",
                    "type": "uint256"
                }
            ],
            "name": "AuctionEnded",
            "type": "event"
        },
        {
            "anonymous": false,
            "inputs": [
                {
                    "indexed": false,
                    "internalType": "address",
                    "name": "bidder",
                    "type": "address"
                },
                {
                    "indexed": false,
                    "internalType": "uint256",
                    "name": "amount",
                    "type": "uint256"
                }
            ],
            "name": "HighestBidIncreased",
            "type": "event"
        },
        {
            "inputs": [],
            "name": "auctionEnd",
            "outputs": [],
            "stateMutability": "nonpayable",
            "type": "function"
        },
        {
            "inputs": [],
            "name": "auctionEndTime",
            "outputs": [
                {
                    "internalType": "uint256",
                    "name": "",
                    "type": "uint256"
                }
            ],
            "stateMutability": "view",
            "type": "function"
        },
        {
            "inputs": [],
            "name": "beneficiary",
            "outputs": [
                {
                    "internalType": "address payable",
                    "name": "",
                    "type": "address"
                }
            ],
            "stateMutability": "view",
            "type": "function"
        },
        {
            "inputs": [],
            "name": "bid",
            "outputs": [],
            "stateMutability": "payable",
            "type": "function"
        },
        {
            "inputs": [],
            "name": "highestBid",
            "outputs": [
                {
                    "internalType": "uint256",
                    "name": "",
                    "type": "uint256"
                }
            ],
            "stateMutability": "view",
            "type": "function"
        },
        {
            "inputs": [],
            "name": "highestBidder",
            "outputs": [
                {
                    "internalType": "address",
                    "name": "",
                    "type": "address"
                }
            ],
            "stateMutability": "view",
            "type": "function"
        },
        {
            "inputs": [],
            "name": "withdraw",
            "outputs": [
                {
                    "internalType": "bool",
                    "name": "",
                    "type": "bool"
                }
            ],
            "stateMutability": "nonpayable",
            "type": "function"
        }
    ],
    "bytecode": "608060405234801561001057600080fd5b506040516104a03803806104a08339818101604052604081101561003357600080fd5b508051602090910151600080546001600160a01b039092166001600160a01b0319909216919091179055420160015561042f806100716000396000f3fe6080604052600436106100705760003560e01c80633ccfd60b1161004e5780633ccfd60b146100c55780634b449cba146100ee57806391f9015714610115578063d57bde791461012a57610070565b80631998aeef146100755780632a24f46c1461007f57806338af3eed14610094575b600080fd5b61007d61013f565b005b34801561008b57600080fd5b5061007d61021a565b3480156100a057600080fd5b506100a9610342565b604080516001600160a01b039092168252519081900360200190f35b3480156100d157600080fd5b506100da610351565b604080519115158252519081900360200190f35b3480156100fa57600080fd5b506101036103bb565b60408051918252519081900360200190f35b34801561012157600080fd5b506100a96103c1565b34801561013657600080fd5b506101036103d0565b6003543411610195576040805162461bcd60e51b815260206004820152601f60248201527f546865726520616c726561647920697320612068696768746572206269642e00604482015290519081900360640190fd5b600354156101c2576003546002546001600160a01b03166000908152600460205260409020805490910190555b600280546001600160a01b0319163390811790915534600381905560408051928352602083019190915280517ff4757a49b326036464bec6fe419a4ae38c8a02ce3e68bf0809674f6aab8ad3009281900390910190a1565b60015442101561026a576040805162461bcd60e51b815260206004820152601660248201527520bab1ba34b7b7103737ba103cb2ba1032b73232b21760511b604482015290519081900360640190fd5b60055460ff16156102ac5760405162461bcd60e51b81526004018080602001828103825260238152602001806103d76023913960400191505060405180910390fd5b6005805460ff19166001179055600254600354604080516001600160a01b039093168352602083019190915280517fdaec4582d5d9595688c8c98545fdd1c696d41c6aeaeb636737e84ed2f5c00eda9281900390910190a1600080546003546040516001600160a01b039092169281156108fc029290818181858888f1935050505015801561033f573d6000803e3d6000fd5b50565b6000546001600160a01b031681565b33600090815260046020526040812054801561037857336000908152600460205260408120555b604051339082156108fc029083906000818181858888f193505050506103b2573360009081526004602052604081209190915590506103b8565b60019150505b90565b60015481565b6002546001600160a01b031681565b6003548156fe61756374696f6e456e642068617320616c7265616479206265656e2063616c6c65642ea2646970667358221220b94c9996880f75bded548a62961aa44beae7d531bde1691e0c24c8922458894264736f6c63430006080033",
    "sourcePath": "/Users/shibaoxu/dev/bitcoin/eth/solidity-sample/contracts/SimpleAuction.sol",
    "compiler": {
        "name": "solc",
        "version": "0.6.8+commit.0bbfe453"
    },
    "functionHashes": {
        "auctionEnd()": "2a24f46c",
        "auctionEndTime()": "4b449cba",
        "beneficiary()": "38af3eed",
        "bid()": "1998aeef",
        "highestBid()": "d57bde79",
        "highestBidder()": "91f90157",
        "withdraw()": "3ccfd60b"
    },
    "gasEstimates": {
        "creation": {
            "codeDepositCost": "214200",
            "executionCost": "infinite",
            "totalCost": "infinite"
        },
        "external": {
            "auctionEnd()": "infinite",
            "auctionEndTime()": "1020",
            "beneficiary()": "1082",
            "bid()": "66469",
            "highestBid()": "1064",
            "highestBidder()": "1081",
            "withdraw()": "infinite"
        }
    }
}