{
    "contractName": "Voting",
    "abi": [
        {
            "inputs": [
                {
                    "internalType": "bytes32[]",
                    "name": "proposalNames",
                    "type": "bytes32[]"
                }
            ],
            "stateMutability": "nonpayable",
            "type": "constructor"
        },
        {
            "inputs": [],
            "name": "chairPerson",
            "outputs": [
                {
                    "internalType": "address",
                    "name": "",
                    "type": "address"
                }
            ],
            "stateMutability": "view",
            "type": "function"
        },
        {
            "inputs": [
                {
                    "internalType": "address",
                    "name": "to",
                    "type": "address"
                }
            ],
            "name": "delegate",
            "outputs": [],
            "stateMutability": "nonpayable",
            "type": "function"
        },
        {
            "inputs": [
                {
                    "internalType": "address",
                    "name": "voter",
                    "type": "address"
                }
            ],
            "name": "giveRightToVote",
            "outputs": [],
            "stateMutability": "nonpayable",
            "type": "function"
        },
        {
            "inputs": [
                {
                    "internalType": "uint256",
                    "name": "",
                    "type": "uint256"
                }
            ],
            "name": "proposals",
            "outputs": [
                {
                    "internalType": "bytes32",
                    "name": "name",
                    "type": "bytes32"
                },
                {
                    "internalType": "uint256",
                    "name": "voteCount",
                    "type": "uint256"
                }
            ],
            "stateMutability": "view",
            "type": "function"
        },
        {
            "inputs": [
                {
                    "internalType": "uint256",
                    "name": "proposal",
                    "type": "uint256"
                }
            ],
            "name": "vote",
            "outputs": [],
            "stateMutability": "nonpayable",
            "type": "function"
        },
        {
            "inputs": [
                {
                    "internalType": "address",
                    "name": "",
                    "type": "address"
                }
            ],
            "name": "voters",
            "outputs": [
                {
                    "internalType": "uint256",
                    "name": "weight",
                    "type": "uint256"
                },
                {
                    "internalType": "bool",
                    "name": "voted",
                    "type": "bool"
                },
                {
                    "internalType": "address",
                    "name": "delegate",
                    "type": "address"
                },
                {
                    "internalType": "uint256",
                    "name": "vote",
                    "type": "uint256"
                }
            ],
            "stateMutability": "view",
            "type": "function"
        },
        {
            "inputs": [],
            "name": "winnerName",
            "outputs": [
                {
                    "internalType": "bytes32",
                    "name": "_winnerName",
                    "type": "bytes32"
                }
            ],
            "stateMutability": "view",
            "type": "function"
        },
        {
            "inputs": [],
            "name": "winningProposal",
            "outputs": [
                {
                    "internalType": "uint256",
                    "name": "_winningProposal",
                    "type": "uint256"
                }
            ],
            "stateMutability": "view",
            "type": "function"
        }
    ],
    "bytecode": "608060405234801561001057600080fd5b506040516108b33803806108b38339818101604052602081101561003357600080fd5b810190808051604051939291908464010000000082111561005357600080fd5b90830190602082018581111561006857600080fd5b825186602082028301116401000000008211171561008557600080fd5b82525081516020918201928201910280838360005b838110156100b257818101518382015260200161009a565b50505050919091016040908152600080546001600160a01b03191633178082556001600160a01b03168152600160208190529181209190915593505050505b81518160ff1610156101595760026040518060400160405280848460ff168151811061011957fe5b60209081029190910181015182526000918101829052835460018181018655948352918190208351600290930201918255919091015190820155016100f1565b50506107498061016a6000396000f3fe608060405234801561001057600080fd5b50600436106100885760003560e01c80639e7b8d611161005b5780639e7b8d6114610122578063a3ec138d14610148578063d4d4b5ac1461019c578063e2ba53f0146101c057610088565b80630121b93f1461008d578063013cf08b146100ac5780635c19a95c146100e2578063609ff1bd14610108575b600080fd5b6100aa600480360360208110156100a357600080fd5b50356101c8565b005b6100c9600480360360208110156100c257600080fd5b50356102b3565b6040805192835260208301919091528051918290030190f35b6100aa600480360360208110156100f857600080fd5b50356001600160a01b03166102de565b6101106104d0565b60408051918252519081900360200190f35b6100aa6004803603602081101561013857600080fd5b50356001600160a01b0316610537565b61016e6004803603602081101561015e57600080fd5b50356001600160a01b031661067a565b6040805194855292151560208501526001600160a01b03909116838301526060830152519081900360800190f35b6101a46106ae565b604080516001600160a01b039092168252519081900360200190f35b6101106106bd565b3360009081526001602052604090208054610221576040805162461bcd60e51b8152602060048201526014602482015273486173206e6f20726967687420746f20766f746560601b604482015290519081900360640190fd5b600181015460ff161561026c576040805162461bcd60e51b815260206004820152600e60248201526d20b63932b0b23c903b37ba32b21760911b604482015290519081900360640190fd5b6001818101805460ff191690911790556002808201839055815481549091908490811061029557fe5b60009182526020909120600160029092020101805490910190555050565b600281815481106102c057fe5b60009182526020909120600290910201805460019091015490915082565b3360009081526001602081905260409091209081015460ff161561033d576040805162461bcd60e51b8152602060048201526011602482015270165bdd48185b1c9958591e481d9bdd1959607a1b604482015290519081900360640190fd5b6001600160a01b03821633141561039b576040805162461bcd60e51b815260206004820152601c60248201527f53656c662d64656c656761746520697320646973616c6c6f7765642e00000000604482015290519081900360640190fd5b815b6001600160a01b038181166000908152600160208190526040909120015461010090041615610444576001600160a01b03908116600090815260016020819052604090912001546101009004163381141561043f576040805162461bcd60e51b815260206004820152601960248201527f466f756e64206c6f6f7020696e2064656c65676174696f6e2e00000000000000604482015290519081900360640190fd5b61039d565b6001828101805460ff19168217610100600160a81b0319166101006001600160a01b038581169190910291909117909155841660009081526020829052604090209081015460ff16156104c2578254600282810154815481106104a357fe5b60009182526020909120600160029092020101805490910190556104ca565b825481540181555b50505050565b600080805b6002548110156105325781600282815481106104ed57fe5b906000526020600020906002020160010154111561052a576002818154811061051257fe5b90600052602060002090600202016001015491508092505b6001016104d5565b505090565b6000546001600160a01b031633146105805760405162461bcd60e51b81526004018080602001828103825260298152602001806106eb6029913960400191505060405180910390fd5b6001600160a01b0381166000908152600160208190526040909120015460ff16156105f2576040805162461bcd60e51b815260206004820152601860248201527f54686520766f74657220616c726561647920766f7465642e0000000000000000604482015290519081900360640190fd5b6001600160a01b0381166000908152600160205260409020541561065d576040805162461bcd60e51b815260206004820152601d60248201527f54686520766f746572277320776569676874206d75737420626520302e000000604482015290519081900360640190fd5b6001600160a01b0316600090815260016020819052604090912055565b600160208190526000918252604090912080549181015460029091015460ff82169161010090046001600160a01b03169084565b6000546001600160a01b031681565b600060026106c96104d0565b815481106106d357fe5b90600052602060002090600202016000015490509056fe4f6e6c7920636861697220706572736f6e2063616e206769766520726967687420746f20766f74652ea2646970667358221220294f33319084453a08c57fb0671de8021084b977757a1eefcd32dc3bf45dadc164736f6c63430006080033",
    "sourcePath": "/Users/shibaoxu/dev/bitcoin/eth/voting/contracts/Voting.sol",
    "compiler": {
        "name": "solc",
        "version": "0.6.8+commit.0bbfe453"
    },
    "functionHashes": {
        "chairPerson()": "d4d4b5ac",
        "delegate(address)": "5c19a95c",
        "giveRightToVote(address)": "9e7b8d61",
        "proposals(uint256)": "013cf08b",
        "vote(uint256)": "0121b93f",
        "voters(address)": "a3ec138d",
        "winnerName()": "e2ba53f0",
        "winningProposal()": "609ff1bd"
    },
    "gasEstimates": {
        "creation": {
            "codeDepositCost": "373000",
            "executionCost": "infinite",
            "totalCost": "infinite"
        },
        "external": {
            "chairPerson()": "1081",
            "delegate(address)": "infinite",
            "giveRightToVote(address)": "infinite",
            "proposals(uint256)": "2810",
            "vote(uint256)": "65301",
            "voters(address)": "2901",
            "winnerName()": "infinite",
            "winningProposal()": "infinite"
        }
    }
}