{
  "contractName": "Resume",
  "abi": [
    {
      "inputs": [
        {
          "internalType": "string",
          "name": "name",
          "type": "string"
        },
        {
          "internalType": "string",
          "name": "symbol",
          "type": "string"
        }
      ],
      "stateMutability": "nonpayable",
      "type": "constructor"
    },
    {
      "anonymous": false,
      "inputs": [
        {
          "indexed": true,
          "internalType": "address",
          "name": "owner",
          "type": "address"
        },
        {
          "indexed": true,
          "internalType": "address",
          "name": "approved",
          "type": "address"
        },
        {
          "indexed": true,
          "internalType": "uint256",
          "name": "tokenId",
          "type": "uint256"
        }
      ],
      "name": "Approval",
      "type": "event"
    },
    {
      "anonymous": false,
      "inputs": [
        {
          "indexed": true,
          "internalType": "address",
          "name": "owner",
          "type": "address"
        },
        {
          "indexed": true,
          "internalType": "address",
          "name": "operator",
          "type": "address"
        },
        {
          "indexed": false,
          "internalType": "bool",
          "name": "approved",
          "type": "bool"
        }
      ],
      "name": "ApprovalForAll",
      "type": "event"
    },
    {
      "anonymous": false,
      "inputs": [
        {
          "indexed": false,
          "internalType": "uint256",
          "name": "_tokenId",
          "type": "uint256"
        },
        {
          "indexed": false,
          "internalType": "uint256",
          "name": "_status",
          "type": "uint256"
        },
        {
          "indexed": false,
          "internalType": "uint256",
          "name": "_price",
          "type": "uint256"
        }
      ],
      "name": "LogArtResell",
      "type": "event"
    },
    {
      "anonymous": false,
      "inputs": [
        {
          "indexed": false,
          "internalType": "uint256",
          "name": "_tokenId",
          "type": "uint256"
        },
        {
          "indexed": false,
          "internalType": "string",
          "name": "_title",
          "type": "string"
        },
        {
          "indexed": false,
          "internalType": "string",
          "name": "_authorName",
          "type": "string"
        },
        {
          "indexed": false,
          "internalType": "uint256",
          "name": "_price",
          "type": "uint256"
        },
        {
          "indexed": false,
          "internalType": "address",
          "name": "_author",
          "type": "address"
        },
        {
          "indexed": false,
          "internalType": "address",
          "name": "_current_owner",
          "type": "address"
        },
        {
          "indexed": false,
          "internalType": "address",
          "name": "_buyer",
          "type": "address"
        }
      ],
      "name": "LogArtSold",
      "type": "event"
    },
    {
      "anonymous": false,
      "inputs": [
        {
          "indexed": false,
          "internalType": "uint256",
          "name": "_tokenId",
          "type": "uint256"
        },
        {
          "indexed": false,
          "internalType": "string",
          "name": "_title",
          "type": "string"
        },
        {
          "indexed": false,
          "internalType": "string",
          "name": "_category",
          "type": "string"
        },
        {
          "indexed": false,
          "internalType": "string",
          "name": "_authorName",
          "type": "string"
        },
        {
          "indexed": false,
          "internalType": "uint256",
          "name": "_price",
          "type": "uint256"
        },
        {
          "indexed": false,
          "internalType": "address",
          "name": "_author",
          "type": "address"
        },
        {
          "indexed": false,
          "internalType": "address",
          "name": "_current_owner",
          "type": "address"
        }
      ],
      "name": "LogArtTokenCreate",
      "type": "event"
    },
    {
      "anonymous": false,
      "inputs": [
        {
          "indexed": true,
          "internalType": "address",
          "name": "from",
          "type": "address"
        },
        {
          "indexed": true,
          "internalType": "address",
          "name": "to",
          "type": "address"
        },
        {
          "indexed": true,
          "internalType": "uint256",
          "name": "tokenId",
          "type": "uint256"
        }
      ],
      "name": "Transfer",
      "type": "event"
    },
    {
      "inputs": [
        {
          "internalType": "uint256",
          "name": "",
          "type": "uint256"
        }
      ],
      "name": "arts",
      "outputs": [
        {
          "internalType": "uint256",
          "name": "id",
          "type": "uint256"
        },
        {
          "internalType": "string",
          "name": "title",
          "type": "string"
        },
        {
          "internalType": "string",
          "name": "description",
          "type": "string"
        },
        {
          "internalType": "uint256",
          "name": "price",
          "type": "uint256"
        },
        {
          "internalType": "string",
          "name": "date",
          "type": "string"
        },
        {
          "internalType": "string",
          "name": "authorName",
          "type": "string"
        },
        {
          "internalType": "address payable",
          "name": "author",
          "type": "address"
        },
        {
          "internalType": "address payable",
          "name": "owner",
          "type": "address"
        },
        {
          "internalType": "uint256",
          "name": "status",
          "type": "uint256"
        },
        {
          "internalType": "string",
          "name": "image",
          "type": "string"
        }
      ],
      "stateMutability": "view",
      "type": "function"
    },
    {
      "inputs": [],
      "name": "index",
      "outputs": [
        {
          "internalType": "uint256",
          "name": "",
          "type": "uint256"
        }
      ],
      "stateMutability": "view",
      "type": "function"
    },
    {
      "inputs": [],
      "name": "name",
      "outputs": [
        {
          "internalType": "string",
          "name": "",
          "type": "string"
        }
      ],
      "stateMutability": "view",
      "type": "function"
    },
    {
      "inputs": [],
      "name": "symbol",
      "outputs": [
        {
          "internalType": "string",
          "name": "",
          "type": "string"
        }
      ],
      "stateMutability": "view",
      "type": "function"
    },
    {
      "inputs": [
        {
          "internalType": "string",
          "name": "_title",
          "type": "string"
        },
        {
          "internalType": "string",
          "name": "_description",
          "type": "string"
        },
        {
          "internalType": "string",
          "name": "_date",
          "type": "string"
        },
        {
          "internalType": "string",
          "name": "_authorName",
          "type": "string"
        },
        {
          "internalType": "uint256",
          "name": "_price",
          "type": "uint256"
        },
        {
          "internalType": "string",
          "name": "_image",
          "type": "string"
        }
      ],
      "name": "createAndSellArt",
      "outputs": [],
      "stateMutability": "nonpayable",
      "type": "function"
    },
    {
      "inputs": [
        {
          "internalType": "uint256",
          "name": "_tokenId",
          "type": "uint256"
        }
      ],
      "name": "buyArt",
      "outputs": [],
      "stateMutability": "payable",
      "type": "function"
    },
    {
      "inputs": [
        {
          "internalType": "uint256",
          "name": "_tokenId",
          "type": "uint256"
        },
        {
          "internalType": "uint256",
          "name": "_price",
          "type": "uint256"
        }
      ],
      "name": "resellArt",
      "outputs": [],
      "stateMutability": "payable",
      "type": "function"
    },
    {
      "inputs": [
        {
          "internalType": "uint256",
          "name": "_tokenId",
          "type": "uint256"
        }
      ],
      "name": "findArt",
      "outputs": [
        {
          "internalType": "uint256",
          "name": "",
          "type": "uint256"
        },
        {
          "internalType": "string",
          "name": "",
          "type": "string"
        },
        {
          "internalType": "string",
          "name": "",
          "type": "string"
        },
        {
          "internalType": "uint256",
          "name": "",
          "type": "uint256"
        },
        {
          "internalType": "uint256",
          "name": "status",
          "type": "uint256"
        },
        {
          "internalType": "string",
          "name": "",
          "type": "string"
        },
        {
          "internalType": "string",
          "name": "",
          "type": "string"
        },
        {
          "internalType": "address",
          "name": "",
          "type": "address"
        },
        {
          "internalType": "address payable",
          "name": "",
          "type": "address"
        },
        {
          "internalType": "string",
          "name": "",
          "type": "string"
        }
      ],
      "stateMutability": "view",
      "type": "function"
    },
    {
      "inputs": [],
      "name": "findAllArt",
      "outputs": [
        {
          "internalType": "uint256[]",
          "name": "",
          "type": "uint256[]"
        },
        {
          "internalType": "address[]",
          "name": "",
          "type": "address[]"
        },
        {
          "internalType": "address[]",
          "name": "",
          "type": "address[]"
        },
        {
          "internalType": "uint256[]",
          "name": "",
          "type": "uint256[]"
        }
      ],
      "stateMutability": "view",
      "type": "function"
    },
    {
      "inputs": [],
      "name": "findAllPendingArt",
      "outputs": [
        {
          "internalType": "uint256[]",
          "name": "",
          "type": "uint256[]"
        },
        {
          "internalType": "address[]",
          "name": "",
          "type": "address[]"
        },
        {
          "internalType": "address[]",
          "name": "",
          "type": "address[]"
        },
        {
          "internalType": "uint256[]",
          "name": "",
          "type": "uint256[]"
        }
      ],
      "stateMutability": "view",
      "type": "function"
    },
    {
      "inputs": [],
      "name": "findMyArts",
      "outputs": [
        {
          "internalType": "uint256[]",
          "name": "_myArts",
          "type": "uint256[]"
        }
      ],
      "stateMutability": "view",
      "type": "function"
    },
    {
      "inputs": [
        {
          "internalType": "uint256",
          "name": "_tokenId",
          "type": "uint256"
        }
      ],
      "name": "getArtAllTxn",
      "outputs": [
        {
          "internalType": "uint256[]",
          "name": "_id",
          "type": "uint256[]"
        },
        {
          "internalType": "uint256[]",
          "name": "_price",
          "type": "uint256[]"
        },
        {
          "internalType": "address[]",
          "name": "seller",
          "type": "address[]"
        },
        {
          "internalType": "address[]",
          "name": "buyer",
          "type": "address[]"
        },
        {
          "internalType": "uint256[]",
          "name": "_txnDate",
          "type": "uint256[]"
        }
      ],
      "stateMutability": "view",
      "type": "function"
    },
    {
      "inputs": [
        {
          "internalType": "uint256",
          "name": "tokenId",
          "type": "uint256"
        },
        {
          "internalType": "address",
          "name": "account",
          "type": "address"
        }
      ],
      "name": "isOwnerOf",
      "outputs": [
        {
          "internalType": "bool",
          "name": "",
          "type": "bool"
        }
      ],
      "stateMutability": "view",
      "type": "function"
    },
    {
      "inputs": [
        {
          "internalType": "address",
          "name": "_owner",
          "type": "address"
        }
      ],
      "name": "balanceOf",
      "outputs": [
        {
          "internalType": "uint256",
          "name": "",
          "type": "uint256"
        }
      ],
      "stateMutability": "view",
      "type": "function"
    },
    {
      "inputs": [
        {
          "internalType": "uint256",
          "name": "_tokenId",
          "type": "uint256"
        }
      ],
      "name": "ownerOf",
      "outputs": [
        {
          "internalType": "address",
          "name": "_owner",
          "type": "address"
        }
      ],
      "stateMutability": "view",
      "type": "function"
    },
    {
      "inputs": [
        {
          "internalType": "address",
          "name": "_to",
          "type": "address"
        },
        {
          "internalType": "uint256",
          "name": "_tokenId",
          "type": "uint256"
        }
      ],
      "name": "approve",
      "outputs": [],
      "stateMutability": "nonpayable",
      "type": "function"
    },
    {
      "inputs": [
        {
          "internalType": "address",
          "name": "_from",
          "type": "address"
        },
        {
          "internalType": "address",
          "name": "_to",
          "type": "address"
        },
        {
          "internalType": "uint256",
          "name": "_tokenId",
          "type": "uint256"
        }
      ],
      "name": "transferFrom",
      "outputs": [],
      "stateMutability": "nonpayable",
      "type": "function"
    },
    {
      "inputs": [
        {
          "internalType": "address",
          "name": "_to",
          "type": "address"
        },
        {
          "internalType": "uint256",
          "name": "_tokenId",
          "type": "uint256"
        }
      ],
      "name": "transfer",
      "outputs": [],
      "stateMutability": "nonpayable",
      "type": "function"
    },
    {
      "inputs": [
        {
          "internalType": "uint256",
          "name": "tokenId",
          "type": "uint256"
        }
      ],
      "name": "getApproved",
      "outputs": [
        {
          "internalType": "address",
          "name": "operator",
          "type": "address"
        }
      ],
      "stateMutability": "view",
      "type": "function"
    },
    {
      "inputs": [
        {
          "internalType": "address",
          "name": "operator",
          "type": "address"
        },
        {
          "internalType": "bool",
          "name": "_approvaled",
          "type": "bool"
        }
      ],
      "name": "setApprovalForAll",
      "outputs": [],
      "stateMutability": "nonpayable",
      "type": "function"
    },
    {
      "inputs": [
        {
          "internalType": "address",
          "name": "owner",
          "type": "address"
        },
        {
          "internalType": "address",
          "name": "operator",
          "type": "address"
        }
      ],
      "name": "isApprovedForAll",
      "outputs": [
        {
          "internalType": "bool",
          "name": "",
          "type": "bool"
        }
      ],
      "stateMutability": "view",
      "type": "function"
    },
    {
      "inputs": [
        {
          "internalType": "address",
          "name": "from",
          "type": "address"
        },
        {
          "internalType": "address",
          "name": "to",
          "type": "address"
        },
        {
          "internalType": "uint256",
          "name": "tokenId",
          "type": "uint256"
        }
      ],
      "name": "safeTransferFrom",
      "outputs": [],
      "stateMutability": "nonpayable",
      "type": "function"
    },
    {
      "inputs": [
        {
          "internalType": "address",
          "name": "from",
          "type": "address"
        },
        {
          "internalType": "address",
          "name": "to",
          "type": "address"
        },
        {
          "internalType": "uint256",
          "name": "tokenId",
          "type": "uint256"
        },
        {
          "internalType": "bytes1[]",
          "name": "data",
          "type": "bytes1[]"
        }
      ],
      "name": "safeTransferFrom",
      "outputs": [],
      "stateMutability": "nonpayable",
      "type": "function"
    }
  ],
  "bytecode": "0x60806040523480156200001157600080fd5b506040516200521c3803806200521c833981810160405260408110156200003757600080fd5b81019080805160405193929190846401000000008211156200005857600080fd5b838201915060208201858111156200006f57600080fd5b82518660018202830111640100000000821117156200008d57600080fd5b8083526020830192505050908051906020019080838360005b83811015620000c3578082015181840152602081019050620000a6565b50505050905090810190601f168015620000f15780820380516001836020036101000a031916815260200191505b50604052602001805160405193929190846401000000008211156200011557600080fd5b838201915060208201858111156200012c57600080fd5b82518660018202830111640100000000821117156200014a57600080fd5b8083526020830192505050908051906020019080838360005b838110156200018057808201518184015260208101905062000163565b50505050905090810190601f168015620001ae5780820380516001836020036101000a031916815260200191505b506040525050508160009080519060200190620001cd929190620001ef565b508060019080519060200190620001e6929190620001ef565b5050506200029e565b828054600181600116156101000203166002900490600052602060002090601f016020900481019282601f106200023257805160ff191683800117855562000263565b8280016001018555821562000263579182015b828111156200026257825182559160200191906001019062000245565b5b50905062000272919062000276565b5090565b6200029b91905b80821115620002975760008160009055506001016200027d565b5090565b90565b614f6e80620002ae6000396000f3fe6080604052600436106101405760003560e01c806370a08231116100b6578063d2c088021161006f578063d2c0880214610f34578063e1925e1514610fa0578063e57a104a14611150578063e985e9c51461142f578063fc7a900b146114b8578063fc920dad146114e657610140565b806370a0823114610a3557806395d89b4114610a9a5780639ac016e214610b2a578063a22cb46514610b9d578063a9059cbb14610bfa578063ce971a1014610c5557610140565b80632986c0e5116101085780632986c0e51461046a5780633e54fca11461049557806342842e0e146105d95780636352211e1461065457806364262dcc146106cf57806367f4755d1461070757610140565b8063063fc9661461014557806306fdde0314610289578063081812fc14610319578063095ea7b31461039457806323b872dd146103ef575b600080fd5b34801561015157600080fd5b5061015a6115f5565b6040518080602001806020018060200180602001858103855289818151815260200191508051906020019060200280838360005b838110156101a957808201518184015260208101905061018e565b50505050905001858103845288818151815260200191508051906020019060200280838360005b838110156101eb5780820151818401526020810190506101d0565b50505050905001858103835287818151815260200191508051906020019060200280838360005b8381101561022d578082015181840152602081019050610212565b50505050905001858103825286818151815260200191508051906020019060200280838360005b8381101561026f578082015181840152602081019050610254565b505050509050019850505050505050505060405180910390f35b34801561029557600080fd5b5061029e611daf565b6040518080602001828103825283818151815260200191508051906020019080838360005b838110156102de5780820151818401526020810190506102c3565b50505050905090810190601f16801561030b5780820380516001836020036101000a031916815260200191505b509250505060405180910390f35b34801561032557600080fd5b506103526004803603602081101561033c57600080fd5b8101908080359060200190929190505050611e51565b604051808273ffffffffffffffffffffffffffffffffffffffff1673ffffffffffffffffffffffffffffffffffffffff16815260200191505060405180910390f35b3480156103a057600080fd5b506103ed600480360360408110156103b757600080fd5b81019080803573ffffffffffffffffffffffffffffffffffffffff16906020019092919080359060200190929190505050611ee4565b005b3480156103fb57600080fd5b506104686004803603606081101561041257600080fd5b81019080803573ffffffffffffffffffffffffffffffffffffffff169060200190929190803573ffffffffffffffffffffffffffffffffffffffff16906020019092919080359060200190929190505050611fec565b005b34801561047657600080fd5b5061047f612128565b6040518082815260200191505060405180910390f35b3480156104a157600080fd5b506104aa61212e565b6040518080602001806020018060200180602001858103855289818151815260200191508051906020019060200280838360005b838110156104f95780820151818401526020810190506104de565b50505050905001858103845288818151815260200191508051906020019060200280838360005b8381101561053b578082015181840152602081019050610520565b50505050905001858103835287818151815260200191508051906020019060200280838360005b8381101561057d578082015181840152602081019050610562565b50505050905001858103825286818151815260200191508051906020019060200280838360005b838110156105bf5780820151818401526020810190506105a4565b505050509050019850505050505050505060405180910390f35b3480156105e557600080fd5b50610652600480360360608110156105fc57600080fd5b81019080803573ffffffffffffffffffffffffffffffffffffffff169060200190929190803573ffffffffffffffffffffffffffffffffffffffff16906020019092919080359060200190929190505050612792565b005b34801561066057600080fd5b5061068d6004803603602081101561067757600080fd5b8101908080359060200190929190505050612797565b604051808273ffffffffffffffffffffffffffffffffffffffff1673ffffffffffffffffffffffffffffffffffffffff16815260200191505060405180910390f35b610705600480360360408110156106e557600080fd5b8101908080359060200190929190803590602001909291905050506127d4565b005b34801561071357600080fd5b50610a33600480360360c081101561072a57600080fd5b810190808035906020019064010000000081111561074757600080fd5b82018360208201111561075957600080fd5b8035906020019184600183028401116401000000008311171561077b57600080fd5b91908080601f016020809104026020016040519081016040528093929190818152602001838380828437600081840152601f19601f820116905080830192505050505050509192919290803590602001906401000000008111156107de57600080fd5b8201836020820111156107f057600080fd5b8035906020019184600183028401116401000000008311171561081257600080fd5b91908080601f016020809104026020016040519081016040528093929190818152602001838380828437600081840152601f19601f8201169050808301925050505050505091929192908035906020019064010000000081111561087557600080fd5b82018360208201111561088757600080fd5b803590602001918460018302840111640100000000831117156108a957600080fd5b91908080601f016020809104026020016040519081016040528093929190818152602001838380828437600081840152601f19601f8201169050808301925050505050505091929192908035906020019064010000000081111561090c57600080fd5b82018360208201111561091e57600080fd5b8035906020019184600183028401116401000000008311171561094057600080fd5b91908080601f016020809104026020016040519081016040528093929190818152602001838380828437600081840152601f19601f82011690508083019250505050505050919291929080359060200190929190803590602001906401000000008111156109ad57600080fd5b8201836020820111156109bf57600080fd5b803590602001918460018302840111640100000000831117156109e157600080fd5b91908080601f016020809104026020016040519081016040528093929190818152602001838380828437600081840152601f19601f82011690508083019250505050505050919291929050505061294e565b005b348015610a4157600080fd5b50610a8460048036036020811015610a5857600080fd5b81019080803573ffffffffffffffffffffffffffffffffffffffff169060200190929190505050612fbf565b6040518082815260200191505060405180910390f35b348015610aa657600080fd5b50610aaf613008565b6040518080602001828103825283818151815260200191508051906020019080838360005b83811015610aef578082015181840152602081019050610ad4565b50505050905090810190601f168015610b1c5780820380516001836020036101000a031916815260200191505b509250505060405180910390f35b348015610b3657600080fd5b50610b8360048036036040811015610b4d57600080fd5b8101908080359060200190929190803573ffffffffffffffffffffffffffffffffffffffff1690602001909291905050506130aa565b604051808215151515815260200191505060405180910390f35b348015610ba957600080fd5b50610bf860048036036040811015610bc057600080fd5b81019080803573ffffffffffffffffffffffffffffffffffffffff169060200190929190803515159060200190929190505050613199565b005b348015610c0657600080fd5b50610c5360048036036040811015610c1d57600080fd5b81019080803573ffffffffffffffffffffffffffffffffffffffff1690602001909291908035906020019092919050505061330f565b005b348015610c6157600080fd5b50610c8e60048036036020811015610c7857600080fd5b81019080803590602001909291905050506133f3565b604051808b815260200180602001806020018a815260200189815260200180602001806020018873ffffffffffffffffffffffffffffffffffffffff1673ffffffffffffffffffffffffffffffffffffffff1681526020018773ffffffffffffffffffffffffffffffffffffffff1673ffffffffffffffffffffffffffffffffffffffff1681526020018060200186810386528f818151815260200191508051906020019080838360005b83811015610d54578082015181840152602081019050610d39565b50505050905090810190601f168015610d815780820380516001836020036101000a031916815260200191505b5086810385528e818151815260200191508051906020019080838360005b83811015610dba578082015181840152602081019050610d9f565b50505050905090810190601f168015610de75780820380516001836020036101000a031916815260200191505b5086810384528b818151815260200191508051906020019080838360005b83811015610e20578082015181840152602081019050610e05565b50505050905090810190601f168015610e4d5780820380516001836020036101000a031916815260200191505b5086810383528a818151815260200191508051906020019080838360005b83811015610e86578082015181840152602081019050610e6b565b50505050905090810190601f168015610eb35780820380516001836020036101000a031916815260200191505b50868103825287818151815260200191508051906020019080838360005b83811015610eec578082015181840152602081019050610ed1565b50505050905090810190601f168015610f195780820380516001836020036101000a031916815260200191505b509f5050505050505050505050505050505060405180910390f35b348015610f4057600080fd5b50610f49613881565b6040518080602001828103825283818151815260200191508051906020019060200280838360005b83811015610f8c578082015181840152602081019050610f71565b505050509050019250505060405180910390f35b348015610fac57600080fd5b50610fd960048036036020811015610fc357600080fd5b8101908080359060200190929190505050613a71565b60405180806020018060200180602001806020018060200186810386528b818151815260200191508051906020019060200280838360005b8381101561102c578082015181840152602081019050611011565b5050505090500186810385528a818151815260200191508051906020019060200280838360005b8381101561106e578082015181840152602081019050611053565b50505050905001868103845289818151815260200191508051906020019060200280838360005b838110156110b0578082015181840152602081019050611095565b50505050905001868103835288818151815260200191508051906020019060200280838360005b838110156110f25780820151818401526020810190506110d7565b50505050905001868103825287818151815260200191508051906020019060200280838360005b83811015611134578082015181840152602081019050611119565b505050509050019a505050505050505050505060405180910390f35b34801561115c57600080fd5b506111896004803603602081101561117357600080fd5b8101908080359060200190929190505050613e7e565b604051808b815260200180602001806020018a815260200180602001806020018973ffffffffffffffffffffffffffffffffffffffff1673ffffffffffffffffffffffffffffffffffffffff1681526020018873ffffffffffffffffffffffffffffffffffffffff1673ffffffffffffffffffffffffffffffffffffffff1681526020018781526020018060200186810386528f818151815260200191508051906020019080838360005b8381101561124f578082015181840152602081019050611234565b50505050905090810190601f16801561127c5780820380516001836020036101000a031916815260200191505b5086810385528e818151815260200191508051906020019080838360005b838110156112b557808201518184015260208101905061129a565b50505050905090810190601f1680156112e25780820380516001836020036101000a031916815260200191505b5086810384528c818151815260200191508051906020019080838360005b8381101561131b578082015181840152602081019050611300565b50505050905090810190601f1680156113485780820380516001836020036101000a031916815260200191505b5086810383528b818151815260200191508051906020019080838360005b83811015611381578082015181840152602081019050611366565b50505050905090810190601f1680156113ae5780820380516001836020036101000a031916815260200191505b50868103825287818151815260200191508051906020019080838360005b838110156113e75780820151818401526020810190506113cc565b50505050905090810190601f1680156114145780820380516001836020036101000a031916815260200191505b509f5050505050505050505050505050505060405180910390f35b34801561143b57600080fd5b5061149e6004803603604081101561145257600080fd5b81019080803573ffffffffffffffffffffffffffffffffffffffff169060200190929190803573ffffffffffffffffffffffffffffffffffffffff169060200190929190505050614217565b604051808215151515815260200191505060405180910390f35b6114e4600480360360208110156114ce57600080fd5b81019080803590602001909291905050506142ab565b005b3480156114f257600080fd5b506115f36004803603608081101561150957600080fd5b81019080803573ffffffffffffffffffffffffffffffffffffffff169060200190929190803573ffffffffffffffffffffffffffffffffffffffff169060200190929190803590602001909291908035906020019064010000000081111561157057600080fd5b82018360208201111561158257600080fd5b803590602001918460208302840111640100000000831117156115a457600080fd5b919080806020026020016040519081016040528093929190818152602001838360200280828437600081840152601f19601f8201169050808301925050505050505091929192905050506149a7565b005b6060806060806000600354141561173357600067ffffffffffffffff8111801561161e57600080fd5b5060405190808252806020026020018201604052801561164d5781602001602082028036833780820191505090505b50600067ffffffffffffffff8111801561166657600080fd5b506040519080825280602002602001820160405280156116955781602001602082028036833780820191505090505b50600067ffffffffffffffff811180156116ae57600080fd5b506040519080825280602002602001820160405280156116dd5781602001602082028036833780820191505090505b50600067ffffffffffffffff811180156116f657600080fd5b506040519080825280602002602001820160405280156117255781602001602082028036833780820191505090505b509350935093509350611da9565b6000600280549050905060608167ffffffffffffffff8111801561175657600080fd5b506040519080825280602002602001820160405280156117855781602001602082028036833780820191505090505b50905060608267ffffffffffffffff811180156117a157600080fd5b506040519080825280602002602001820160405280156117d05781602001602082028036833780820191505090505b50905060608367ffffffffffffffff811180156117ec57600080fd5b5060405190808252806020026020018201604052801561181b5781602001602082028036833780820191505090505b50905060608467ffffffffffffffff8111801561183757600080fd5b506040519080825280602002602001820160405280156118665781602001602082028036833780820191505090505b509050600080905060008090505b86811015611d9557611884614db2565b6002828154811061189157fe5b90600052602060002090600a02016040518061014001604052908160008201548152602001600182018054600181600116156101000203166002900480601f01602080910402602001604051908101604052809291908181526020018280546001816001161561010002031660029004801561194e5780601f106119235761010080835404028352916020019161194e565b820191906000526020600020905b81548152906001019060200180831161193157829003601f168201915b50505050508152602001600282018054600181600116156101000203166002900480601f0160208091040260200160405190810160405280929190818152602001828054600181600116156101000203166002900480156119f05780601f106119c5576101008083540402835291602001916119f0565b820191906000526020600020905b8154815290600101906020018083116119d357829003601f168201915b5050505050815260200160038201548152602001600482018054600181600116156101000203166002900480601f016020809104026020016040519081016040528092919081815260200182805460018160011615610100020316600290048015611a9c5780601f10611a7157610100808354040283529160200191611a9c565b820191906000526020600020905b815481529060010190602001808311611a7f57829003601f168201915b50505050508152602001600582018054600181600116156101000203166002900480601f016020809104026020016040519081016040528092919081815260200182805460018160011615610100020316600290048015611b3e5780601f10611b1357610100808354040283529160200191611b3e565b820191906000526020600020905b815481529060010190602001808311611b2157829003601f168201915b505050505081526020016006820160009054906101000a900473ffffffffffffffffffffffffffffffffffffffff1673ffffffffffffffffffffffffffffffffffffffff1673ffffffffffffffffffffffffffffffffffffffff1681526020016007820160009054906101000a900473ffffffffffffffffffffffffffffffffffffffff1673ffffffffffffffffffffffffffffffffffffffff1673ffffffffffffffffffffffffffffffffffffffff16815260200160088201548152602001600982018054600181600116156101000203166002900480601f016020809104026020016040519081016040528092919081815260200182805460018160011615610100020316600290048015611c965780601f10611c6b57610100808354040283529160200191611c96565b820191906000526020600020905b815481529060010190602001808311611c7957829003601f168201915b505050505081525050905060018161010001511415611d89578060000151878481518110611cc057fe5b6020026020010181815250508060c00151868481518110611cdd57fe5b602002602001019073ffffffffffffffffffffffffffffffffffffffff16908173ffffffffffffffffffffffffffffffffffffffff16815250508060e00151858481518110611d2857fe5b602002602001019073ffffffffffffffffffffffffffffffffffffffff16908173ffffffffffffffffffffffffffffffffffffffff1681525050806101000151848481518110611d7457fe5b60200260200101818152505082806001019350505b50806001019050611874565b508484848499509950995099505050505050505b90919293565b606060008054600181600116156101000203166002900480601f016020809104026020016040519081016040528092919081815260200182805460018160011615610100020316600290048015611e475780601f10611e1c57610100808354040283529160200191611e47565b820191906000526020600020905b815481529060010190602001808311611e2a57829003601f168201915b5050505050905090565b6000611e5c826149ad565b611ea9576040517f08c379a0000000000000000000000000000000000000000000000000000000008152600401808060200182810382526000815260200160200191505060405180910390fd5b6006600083815260200190815260200160002060009054906101000a900473ffffffffffffffffffffffffffffffffffffffff169050919050565b611eee81336130aa565b611f3b576040517f08c379a0000000000000000000000000000000000000000000000000000000008152600401808060200182810382526000815260200160200191505060405180910390fd5b816006600083815260200190815260200160002060006101000a81548173ffffffffffffffffffffffffffffffffffffffff021916908373ffffffffffffffffffffffffffffffffffffffff160217905550808273ffffffffffffffffffffffffffffffffffffffff163373ffffffffffffffffffffffffffffffffffffffff167f8c5be1e5ebec7d5bd14f71427d1e84f3dd0314c0f7b2291e5b200ac8c7c3b92560405160405180910390a45050565b600073ffffffffffffffffffffffffffffffffffffffff168273ffffffffffffffffffffffffffffffffffffffff16141561206a576040517f08c379a0000000000000000000000000000000000000000000000000000000008152600401808060200182810382526000815260200160200191505060405180910390fd5b61207481846130aa565b6120c1576040517f08c379a0000000000000000000000000000000000000000000000000000000008152600401808060200182810382526000815260200160200191505060405180910390fd5b6120cb8282614a1f565b612118576040517f08c379a0000000000000000000000000000000000000000000000000000000008152600401808060200182810382526000815260200160200191505060405180910390fd5b612123838383614a8b565b505050565b60095481565b6060806060806000600280549050905060608167ffffffffffffffff8111801561215757600080fd5b506040519080825280602002602001820160405280156121865781602001602082028036833780820191505090505b50905060608267ffffffffffffffff811180156121a257600080fd5b506040519080825280602002602001820160405280156121d15781602001602082028036833780820191505090505b50905060608367ffffffffffffffff811180156121ed57600080fd5b5060405190808252806020026020018201604052801561221c5781602001602082028036833780820191505090505b50905060608467ffffffffffffffff8111801561223857600080fd5b506040519080825280602002602001820160405280156122675781602001602082028036833780820191505090505b50905060008090505b8581101561277a57612280614db2565b6002828154811061228d57fe5b90600052602060002090600a02016040518061014001604052908160008201548152602001600182018054600181600116156101000203166002900480601f01602080910402602001604051908101604052809291908181526020018280546001816001161561010002031660029004801561234a5780601f1061231f5761010080835404028352916020019161234a565b820191906000526020600020905b81548152906001019060200180831161232d57829003601f168201915b50505050508152602001600282018054600181600116156101000203166002900480601f0160208091040260200160405190810160405280929190818152602001828054600181600116156101000203166002900480156123ec5780601f106123c1576101008083540402835291602001916123ec565b820191906000526020600020905b8154815290600101906020018083116123cf57829003601f168201915b5050505050815260200160038201548152602001600482018054600181600116156101000203166002900480601f0160208091040260200160405190810160405280929190818152602001828054600181600116156101000203166002900480156124985780601f1061246d57610100808354040283529160200191612498565b820191906000526020600020905b81548152906001019060200180831161247b57829003601f168201915b50505050508152602001600582018054600181600116156101000203166002900480601f01602080910402602001604051908101604052809291908181526020018280546001816001161561010002031660029004801561253a5780601f1061250f5761010080835404028352916020019161253a565b820191906000526020600020905b81548152906001019060200180831161251d57829003601f168201915b505050505081526020016006820160009054906101000a900473ffffffffffffffffffffffffffffffffffffffff1673ffffffffffffffffffffffffffffffffffffffff1673ffffffffffffffffffffffffffffffffffffffff1681526020016007820160009054906101000a900473ffffffffffffffffffffffffffffffffffffffff1673ffffffffffffffffffffffffffffffffffffffff1673ffffffffffffffffffffffffffffffffffffffff16815260200160088201548152602001600982018054600181600116156101000203166002900480601f0160208091040260200160405190810160405280929190818152602001828054600181600116156101000203166002900480156126925780601f1061266757610100808354040283529160200191612692565b820191906000526020600020905b81548152906001019060200180831161267557829003601f168201915b505050505081525050905080600001518683815181106126ae57fe5b6020026020010181815250508060c001518583815181106126cb57fe5b602002602001019073ffffffffffffffffffffffffffffffffffffffff16908173ffffffffffffffffffffffffffffffffffffffff16815250508060e0015184838151811061271657fe5b602002602001019073ffffffffffffffffffffffffffffffffffffffff16908173ffffffffffffffffffffffffffffffffffffffff168152505080610100015183838151811061276257fe5b60200260200101818152505050806001019050612270565b50838383839850985098509850505050505090919293565b505050565b60006004600083815260200190815260200160002060009054906101000a900473ffffffffffffffffffffffffffffffffffffffff169050919050565b600073ffffffffffffffffffffffffffffffffffffffff163373ffffffffffffffffffffffffffffffffffffffff161415612852576040517f08c379a0000000000000000000000000000000000000000000000000000000008152600401808060200182810382526000815260200160200191505060405180910390fd5b61285c82336130aa565b6128a9576040517f08c379a0000000000000000000000000000000000000000000000000000000008152600401808060200182810382526000815260200160200191505060405180910390fd5b6001600283815481106128b857fe5b90600052602060002090600a02016008018190555080600283815481106128db57fe5b90600052602060002090600a0201600301819055506003600081548092919060010191905055507f8916ae292317d6f324a5ed02fea84bf6881d4065b6d575a8980442469b882b7a8260018360405180848152602001838152602001828152602001935050505060405180910390a15050565b60008651116129c5576040517f08c379a00000000000000000000000000000000000000000000000000000000081526004018080602001828103825260198152602001807f546865207469746c652063616e6e6f7420626520656d7074790000000000000081525060200191505060405180910390fd5b6000845111612a3c576040517f08c379a00000000000000000000000000000000000000000000000000000000081526004018080602001828103825260198152602001807f54686520446174652063616e206e6f7420626520656d7074790000000000000081525060200191505060405180910390fd5b6000855111612ab3576040517f08c379a00000000000000000000000000000000000000000000000000000000081526004018080602001828103825260208152602001807f546865206465736372697074696f6e2063616e206e6f7420626520656d70747981525060200191505060405180910390fd5b60008211612b29576040517f08c379a00000000000000000000000000000000000000000000000000000000081526004018080602001828103825260198152602001807f5468652070726963652063616e6e6f7420626520656d7074790000000000000081525060200191505060405180910390fd5b6000815111612ba0576040517f08c379a00000000000000000000000000000000000000000000000000000000081526004018080602001828103825260198152602001807f54686520696d6167652063616e6e6f7420626520656d7074790000000000000081525060200191505060405180910390fd5b612ba8614db2565b60405180610140016040528060095481526020018881526020018781526020018481526020018681526020018581526020013373ffffffffffffffffffffffffffffffffffffffff1681526020013373ffffffffffffffffffffffffffffffffffffffff1681526020016001815260200183815250905060028190806001815401808255809150506001900390600052602060002090600a0201600090919091909150600082015181600001556020820151816001019080519060200190612c71929190614e31565b506040820151816002019080519060200190612c8e929190614e31565b50606082015181600301556080820151816004019080519060200190612cb5929190614e31565b5060a0820151816005019080519060200190612cd2929190614e31565b5060c08201518160060160006101000a81548173ffffffffffffffffffffffffffffffffffffffff021916908373ffffffffffffffffffffffffffffffffffffffff16021790555060e08201518160070160006101000a81548173ffffffffffffffffffffffffffffffffffffffff021916908373ffffffffffffffffffffffffffffffffffffffff1602179055506101008201518160080155610120820151816009019080519060200190612d89929190614e31565b50505060006001600280549050039050612da33382614bdc565b7ff376cc32e072d5cce6d2829c66b30d30fa0bd8fccda5e8fc27dab2543050571581898888883333604051808881526020018060200180602001806020018781526020018673ffffffffffffffffffffffffffffffffffffffff1673ffffffffffffffffffffffffffffffffffffffff1681526020018573ffffffffffffffffffffffffffffffffffffffff1673ffffffffffffffffffffffffffffffffffffffff16815260200184810384528a818151815260200191508051906020019080838360005b83811015612e83578082015181840152602081019050612e68565b50505050905090810190601f168015612eb05780820380516001836020036101000a031916815260200191505b50848103835289818151815260200191508051906020019080838360005b83811015612ee9578082015181840152602081019050612ece565b50505050905090810190601f168015612f165780820380516001836020036101000a031916815260200191505b50848103825288818151815260200191508051906020019080838360005b83811015612f4f578082015181840152602081019050612f34565b50505050905090810190601f168015612f7c5780820380516001836020036101000a031916815260200191505b509a505050505050505050505060405180910390a16009600081548092919060010191905055506003600081548092919060010191905055505050505050505050565b6000600560008373ffffffffffffffffffffffffffffffffffffffff1673ffffffffffffffffffffffffffffffffffffffff168152602001908152602001600020549050919050565b606060018054600181600116156101000203166002900480601f0160208091040260200160405190810160405280929190818152602001828054600181600116156101000203166002900480156130a05780601f10613075576101008083540402835291602001916130a0565b820191906000526020600020905b81548152906001019060200180831161308357829003601f168201915b5050505050905090565b6000806004600085815260200190815260200160002060009054906101000a900473ffffffffffffffffffffffffffffffffffffffff169050600073ffffffffffffffffffffffffffffffffffffffff168173ffffffffffffffffffffffffffffffffffffffff161415613161576040517f08c379a0000000000000000000000000000000000000000000000000000000008152600401808060200182810382526000815260200160200191505060405180910390fd5b8273ffffffffffffffffffffffffffffffffffffffff168173ffffffffffffffffffffffffffffffffffffffff161491505092915050565b3373ffffffffffffffffffffffffffffffffffffffff168273ffffffffffffffffffffffffffffffffffffffff161415613216576040517f08c379a0000000000000000000000000000000000000000000000000000000008152600401808060200182810382526000815260200160200191505060405180910390fd5b801515600760003373ffffffffffffffffffffffffffffffffffffffff1673ffffffffffffffffffffffffffffffffffffffff16815260200190815260200160002060008473ffffffffffffffffffffffffffffffffffffffff1673ffffffffffffffffffffffffffffffffffffffff16815260200190815260200160002060009054906101000a905050508173ffffffffffffffffffffffffffffffffffffffff163373ffffffffffffffffffffffffffffffffffffffff167f17307eab39ab6107e8899845ad3d59bd9653f200f220920489ca2b5937696c3183604051808215151515815260200191505060405180910390a35050565b600073ffffffffffffffffffffffffffffffffffffffff168273ffffffffffffffffffffffffffffffffffffffff16141561338d576040517f08c379a0000000000000000000000000000000000000000000000000000000008152600401808060200182810382526000815260200160200191505060405180910390fd5b61339781336130aa565b6133e4576040517f08c379a0000000000000000000000000000000000000000000000000000000008152600401808060200182810382526000815260200160200191505060405180910390fd5b6133ef338383614a8b565b5050565b6000606080600080606080600080606061340b614db2565b60028c8154811061341857fe5b90600052602060002090600a02016040518061014001604052908160008201548152602001600182018054600181600116156101000203166002900480601f0160208091040260200160405190810160405280929190818152602001828054600181600116156101000203166002900480156134d55780601f106134aa576101008083540402835291602001916134d5565b820191906000526020600020905b8154815290600101906020018083116134b857829003601f168201915b50505050508152602001600282018054600181600116156101000203166002900480601f0160208091040260200160405190810160405280929190818152602001828054600181600116156101000203166002900480156135775780601f1061354c57610100808354040283529160200191613577565b820191906000526020600020905b81548152906001019060200180831161355a57829003601f168201915b5050505050815260200160038201548152602001600482018054600181600116156101000203166002900480601f0160208091040260200160405190810160405280929190818152602001828054600181600116156101000203166002900480156136235780601f106135f857610100808354040283529160200191613623565b820191906000526020600020905b81548152906001019060200180831161360657829003601f168201915b50505050508152602001600582018054600181600116156101000203166002900480601f0160208091040260200160405190810160405280929190818152602001828054600181600116156101000203166002900480156136c55780601f1061369a576101008083540402835291602001916136c5565b820191906000526020600020905b8154815290600101906020018083116136a857829003601f168201915b505050505081526020016006820160009054906101000a900473ffffffffffffffffffffffffffffffffffffffff1673ffffffffffffffffffffffffffffffffffffffff1673ffffffffffffffffffffffffffffffffffffffff1681526020016007820160009054906101000a900473ffffffffffffffffffffffffffffffffffffffff1673ffffffffffffffffffffffffffffffffffffffff1673ffffffffffffffffffffffffffffffffffffffff16815260200160088201548152602001600982018054600181600116156101000203166002900480601f01602080910402602001604051908101604052809291908181526020018280546001816001161561010002031660029004801561381d5780601f106137f25761010080835404028352916020019161381d565b820191906000526020600020905b81548152906001019060200180831161380057829003601f168201915b5050505050815250509050806000015181602001518260400151836060015184610100015185608001518660a001518760c001518860e001518961012001518292509a509a509a509a509a509a509a509a509a509a50509193959799509193959799565b6060600073ffffffffffffffffffffffffffffffffffffffff163373ffffffffffffffffffffffffffffffffffffffff161415613901576040517f08c379a0000000000000000000000000000000000000000000000000000000008152600401808060200182810382526000815260200160200191505060405180910390fd5b600061390c33612fbf565b9050600081141561396757600067ffffffffffffffff8111801561392f57600080fd5b5060405190808252806020026020018201604052801561395e5781602001602082028036833780820191505090505b50915050613a6e565b60608167ffffffffffffffff8111801561398057600080fd5b506040519080825280602002602001820160405280156139af5781602001602082028036833780820191505090505b50905060008090506000600280549050905060008090505b81811015613a65573373ffffffffffffffffffffffffffffffffffffffff166004600083815260200190815260200160002060009054906101000a900473ffffffffffffffffffffffffffffffffffffffff1673ffffffffffffffffffffffffffffffffffffffff161415613a585780848481518110613a4357fe5b60200260200101818152505082806001019350505b80806001019150506139c7565b50829450505050505b90565b60608060608060608060086000888152602001908152602001600020805480602002602001604051908101604052809291908181526020016000905b82821015613bb357838290600052602060002090600602016040518060c001604052908160008201548152602001600182015481526020016002820160009054906101000a900473ffffffffffffffffffffffffffffffffffffffff1673ffffffffffffffffffffffffffffffffffffffff1673ffffffffffffffffffffffffffffffffffffffff1681526020016003820160009054906101000a900473ffffffffffffffffffffffffffffffffffffffff1673ffffffffffffffffffffffffffffffffffffffff1673ffffffffffffffffffffffffffffffffffffffff1681526020016004820154815260200160058201548152505081526020019060010190613aad565b50505050905060008151905060608167ffffffffffffffff81118015613bd857600080fd5b50604051908082528060200260200182016040528015613c075781602001602082028036833780820191505090505b50905060608267ffffffffffffffff81118015613c2357600080fd5b50604051908082528060200260200182016040528015613c525781602001602082028036833780820191505090505b50905060608367ffffffffffffffff81118015613c6e57600080fd5b50604051908082528060200260200182016040528015613c9d5781602001602082028036833780820191505090505b50905060608467ffffffffffffffff81118015613cb957600080fd5b50604051908082528060200260200182016040528015613ce85781602001602082028036833780820191505090505b50905060608567ffffffffffffffff81118015613d0457600080fd5b50604051908082528060200260200182016040528015613d335781602001602082028036833780820191505090505b50905060008090505b8751811015613e5e57613d4d614eb1565b888281518110613d5957fe5b602002602001015190508060000151878381518110613d7457fe5b6020026020010181815250508060200151868381518110613d9157fe5b6020026020010181815250508060400151858381518110613dae57fe5b602002602001019073ffffffffffffffffffffffffffffffffffffffff16908173ffffffffffffffffffffffffffffffffffffffff16815250508060600151848381518110613df957fe5b602002602001019073ffffffffffffffffffffffffffffffffffffffff16908173ffffffffffffffffffffffffffffffffffffffff16815250508060800151838381518110613e4457fe5b602002602001018181525050508080600101915050613d3c565b5084848484849b509b509b509b509b505050505050505091939590929450565b60028181548110613e8b57fe5b90600052602060002090600a0201600091509050806000015490806001018054600181600116156101000203166002900480601f016020809104026020016040519081016040528092919081815260200182805460018160011615610100020316600290048015613f3d5780601f10613f1257610100808354040283529160200191613f3d565b820191906000526020600020905b815481529060010190602001808311613f2057829003601f168201915b505050505090806002018054600181600116156101000203166002900480601f016020809104026020016040519081016040528092919081815260200182805460018160011615610100020316600290048015613fdb5780601f10613fb057610100808354040283529160200191613fdb565b820191906000526020600020905b815481529060010190602001808311613fbe57829003601f168201915b505050505090806003015490806004018054600181600116156101000203166002900480601f01602080910402602001604051908101604052809291908181526020018280546001816001161561010002031660029004801561407f5780601f106140545761010080835404028352916020019161407f565b820191906000526020600020905b81548152906001019060200180831161406257829003601f168201915b505050505090806005018054600181600116156101000203166002900480601f01602080910402602001604051908101604052809291908181526020018280546001816001161561010002031660029004801561411d5780601f106140f25761010080835404028352916020019161411d565b820191906000526020600020905b81548152906001019060200180831161410057829003601f168201915b5050505050908060060160009054906101000a900473ffffffffffffffffffffffffffffffffffffffff16908060070160009054906101000a900473ffffffffffffffffffffffffffffffffffffffff1690806008015490806009018054600181600116156101000203166002900480601f01602080910402602001604051908101604052809291908181526020018280546001816001161561010002031660029004801561420d5780601f106141e25761010080835404028352916020019161420d565b820191906000526020600020905b8154815290600101906020018083116141f057829003601f168201915b505050505090508a565b6000600760008473ffffffffffffffffffffffffffffffffffffffff1673ffffffffffffffffffffffffffffffffffffffff16815260200190815260200160002060008373ffffffffffffffffffffffffffffffffffffffff1673ffffffffffffffffffffffffffffffffffffffff16815260200190815260200160002060009054906101000a900460ff16905092915050565b6000606060008060606000806142c0886133f3565b5098509850985050975097505096509650600073ffffffffffffffffffffffffffffffffffffffff168173ffffffffffffffffffffffffffffffffffffffff16141561434f576040517f08c379a0000000000000000000000000000000000000000000000000000000008152600401808060200182810382526000815260200160200191505060405180910390fd5b600073ffffffffffffffffffffffffffffffffffffffff163373ffffffffffffffffffffffffffffffffffffffff1614156143cd576040517f08c379a0000000000000000000000000000000000000000000000000000000008152600401808060200182810382526000815260200160200191505060405180910390fd5b8073ffffffffffffffffffffffffffffffffffffffff163373ffffffffffffffffffffffffffffffffffffffff16141561444a576040517f08c379a0000000000000000000000000000000000000000000000000000000008152600401808060200182810382526000815260200160200191505060405180910390fd5b8434101561449b576040517f08c379a0000000000000000000000000000000000000000000000000000000008152600401808060200182810382526000815260200160200191505060405180910390fd5b600073ffffffffffffffffffffffffffffffffffffffff16600289815481106144c057fe5b90600052602060002090600a020160070160009054906101000a900473ffffffffffffffffffffffffffffffffffffffff1673ffffffffffffffffffffffffffffffffffffffff161415614557576040517f08c379a0000000000000000000000000000000000000000000000000000000008152600401808060200182810382526000815260200160200191505060405180910390fd5b61456281338a614a8b565b843411156145b4573373ffffffffffffffffffffffffffffffffffffffff166108fc8634039081150290604051600060405180830381858888f193505050501580156145b2573d6000803e3d6000fd5b505b8073ffffffffffffffffffffffffffffffffffffffff166108fc869081150290604051600060405180830381858888f193505050501580156145fa573d6000803e3d6000fd5b50336002898154811061460957fe5b90600052602060002090600a020160070160006101000a81548173ffffffffffffffffffffffffffffffffffffffff021916908373ffffffffffffffffffffffffffffffffffffffff16021790555060006002898154811061466757fe5b90600052602060002090600a020160080181905550614684614eb1565b6040518060c001604052808981526020018781526020018373ffffffffffffffffffffffffffffffffffffffff1681526020013373ffffffffffffffffffffffffffffffffffffffff16815260200142815260200186815250905060086000898152602001908152602001600020819080600181540180825580915050600190039060005260206000209060060201600090919091909150600082015181600001556020820151816001015560408201518160020160006101000a81548173ffffffffffffffffffffffffffffffffffffffff021916908373ffffffffffffffffffffffffffffffffffffffff16021790555060608201518160030160006101000a81548173ffffffffffffffffffffffffffffffffffffffff021916908373ffffffffffffffffffffffffffffffffffffffff1602179055506080820151816004015560a082015181600501555050600360008154809291906001900391905055507f33157a2d6e087f53ff6fc0edba4550aa6df53452ece435476cd3ab334ad50c34898886898787336040518088815260200180602001806020018781526020018673ffffffffffffffffffffffffffffffffffffffff1673ffffffffffffffffffffffffffffffffffffffff1681526020018573ffffffffffffffffffffffffffffffffffffffff1673ffffffffffffffffffffffffffffffffffffffff1681526020018473ffffffffffffffffffffffffffffffffffffffff1673ffffffffffffffffffffffffffffffffffffffff168152602001838103835289818151815260200191508051906020019080838360005b838110156148f55780820151818401526020810190506148da565b50505050905090810190601f1680156149225780820380516001836020036101000a031916815260200191505b50838103825288818151815260200191508051906020019080838360005b8381101561495b578082015181840152602081019050614940565b50505050905090810190601f1680156149885780820380516001836020036101000a031916815260200191505b50995050505050505050505060405180910390a1505050505050505050565b50505050565b6000806004600084815260200190815260200160002060009054906101000a900473ffffffffffffffffffffffffffffffffffffffff169050600073ffffffffffffffffffffffffffffffffffffffff168173ffffffffffffffffffffffffffffffffffffffff161415915050919050565b60008273ffffffffffffffffffffffffffffffffffffffff166006600084815260200190815260200160002060009054906101000a900473ffffffffffffffffffffffffffffffffffffffff1673ffffffffffffffffffffffffffffffffffffffff1614905092915050565b600560008373ffffffffffffffffffffffffffffffffffffffff1673ffffffffffffffffffffffffffffffffffffffff16815260200190815260200160002060008154809291906001019190505550600560008473ffffffffffffffffffffffffffffffffffffffff1673ffffffffffffffffffffffffffffffffffffffff1681526020019081526020016000206000815480929190600190039190505550816004600083815260200190815260200160002060006101000a81548173ffffffffffffffffffffffffffffffffffffffff021916908373ffffffffffffffffffffffffffffffffffffffff160217905550808273ffffffffffffffffffffffffffffffffffffffff168473ffffffffffffffffffffffffffffffffffffffff167fddf252ad1be2c89b69c2b068fc378daa952ba7f163c4a11628f55a4df523b3ef60405160405180910390a4505050565b600073ffffffffffffffffffffffffffffffffffffffff168273ffffffffffffffffffffffffffffffffffffffff161415614c5a576040517f08c379a0000000000000000000000000000000000000000000000000000000008152600401808060200182810382526000815260200160200191505060405180910390fd5b614c63816149ad565b15614cb1576040517f08c379a0000000000000000000000000000000000000000000000000000000008152600401808060200182810382526000815260200160200191505060405180910390fd5b816004600083815260200190815260200160002060006101000a81548173ffffffffffffffffffffffffffffffffffffffff021916908373ffffffffffffffffffffffffffffffffffffffff160217905550600560008373ffffffffffffffffffffffffffffffffffffffff1673ffffffffffffffffffffffffffffffffffffffff16815260200190815260200160002060008154809291906001019190505550808273ffffffffffffffffffffffffffffffffffffffff16600073ffffffffffffffffffffffffffffffffffffffff167fddf252ad1be2c89b69c2b068fc378daa952ba7f163c4a11628f55a4df523b3ef60405160405180910390a45050565b604051806101400160405280600081526020016060815260200160608152602001600081526020016060815260200160608152602001600073ffffffffffffffffffffffffffffffffffffffff168152602001600073ffffffffffffffffffffffffffffffffffffffff16815260200160008152602001606081525090565b828054600181600116156101000203166002900490600052602060002090601f016020900481019282601f10614e7257805160ff1916838001178555614ea0565b82800160010185558215614ea0579182015b82811115614e9f578251825591602001919060010190614e84565b5b509050614ead9190614f13565b5090565b6040518060c001604052806000815260200160008152602001600073ffffffffffffffffffffffffffffffffffffffff168152602001600073ffffffffffffffffffffffffffffffffffffffff16815260200160008152602001600081525090565b614f3591905b80821115614f31576000816000905550600101614f19565b5090565b9056fea26469706673582212203ff340cb33e58be75ef0918974554ba3b134b291bf253e8a00f81f6ac220564a64736f6c63430006080033",
  "immutableReferences": {},
  "source": "// SPDX-License-Identifier: MIT\npragma solidity ^0.6.8;\n\n\ninterface ERC721 {\n    event Transfer(\n        address indexed from,\n        address indexed to,\n        uint256 indexed tokenId\n    );\n    event Approval(\n        address indexed owner,\n        address indexed approved,\n        uint256 indexed tokenId\n    );\n    event ApprovalForAll(\n        address indexed owner,\n        address indexed operator,\n        bool approved\n    );\n\n    function balanceOf(address owner) external view returns (uint256 balance);\n\n    function ownerOf(uint256 tokenId) external view returns (address owner);\n\n    function approve(address _to, uint256 _tokenId) external;\n\n    function getApproved(uint256 tokenId)\n        external\n        view\n        returns (address operator);\n\n    function setApprovalForAll(address operator, bool _approved) external;\n\n    function isApprovedForAll(address owner, address operator)\n        external\n        view\n        returns (bool);\n\n    function transferFrom(\n        address from,\n        address to,\n        uint256 tokenId\n    ) external;\n\n    function safeTransferFrom(\n        address from,\n        address to,\n        uint256 tokenId\n    ) external;\n\n    function safeTransferFrom(\n        address from,\n        address to,\n        uint256 tokenId,\n        byte[] calldata data\n    ) external;\n}\n\n\ncontract Resume is ERC721 {\n    string private _name;\n    string private _symbol;\n    Art[] public arts;\n    uint256 private pendingArtCount;\n    mapping(uint256 => address) private _tokenOwner;\n    mapping(address => uint256) private _ownedTokenCount;\n    mapping(uint256 => address) private _tokenApprovals;\n    mapping(address => mapping(address => bool)) private _operatorApprovals;\n    mapping(uint256 => ArtTxn[]) private artTxns;\n    uint256 public index;\n\n    struct Art {\n        uint256 id;\n        string title;\n        string description;\n        uint256 price;\n        string date;\n        string authorName;\n        address payable author;\n        address payable owner;\n        uint256 status;\n        string image;\n    }\n\n    struct ArtTxn {\n        uint256 id;\n        uint256 price;\n        address seller;\n        address buyer;\n        uint256 txnDate;\n        uint256 status;\n    }\n\n    event LogArtSold(\n        uint256 _tokenId,\n        string _title,\n        string _authorName,\n        uint256 _price,\n        address _author,\n        address _current_owner,\n        address _buyer\n    );\n    event LogArtTokenCreate(\n        uint256 _tokenId,\n        string _title,\n        string _category,\n        string _authorName,\n        uint256 _price,\n        address _author,\n        address _current_owner\n    );\n    event LogArtResell(uint256 _tokenId, uint256 _status, uint256 _price);\n\n    constructor(string memory name, string memory symbol) public {\n        _name = name;\n        _symbol = symbol;\n    }\n\n    function name() external view returns (string memory) {\n        return _name;\n    }\n\n    function symbol() external view returns (string memory) {\n        return _symbol;\n    }\n\n    /**\n     * 1. Art, indexID\n     * 2. TokenId\n     * 3. senderArt\n     */\n    function createAndSellArt(\n        string memory _title,\n        string memory _description,\n        string memory _date,\n        string memory _authorName,\n        uint256 _price,\n        string memory _image\n    ) public {\n        require(bytes(_title).length > 0, \"The title cannot be empty\");\n        require(bytes(_date).length > 0, \"The Date can not be empty\");\n        require(\n            bytes(_description).length > 0,\n            \"The description can not be empty\"\n        );\n        require(_price > 0, \"The price cannot be empty\");\n        require(bytes(_image).length > 0, \"The image cannot be empty\");\n        Art memory _art = Art({\n            id: index,\n            title: _title,\n            description: _description,\n            price: _price,\n            date: _date,\n            authorName: _authorName,\n            author: msg.sender,\n            owner: msg.sender,\n            status: 1,\n            image: _image\n        });\n        arts.push(_art);\n        uint256 tokenId = arts.length - 1;\n        _mint(msg.sender, tokenId);\n        emit LogArtTokenCreate(\n            tokenId,\n            _title,\n            _date,\n            _authorName,\n            _price,\n            msg.sender,\n            msg.sender\n        );\n        index++;\n        pendingArtCount++;\n    }\n\n    /**\n     * 1. TokenIdArt\n     * 2.   \n     * 3. SenderArt\n     * 4. \n     * 5. \n     */\n    function buyArt(uint256 _tokenId) public payable {\n        (\n            uint256 _id,\n            string memory _title,\n            ,\n            uint256 _price,\n            uint256 _status,\n            ,\n            string memory _authorName,\n            address _author,\n            address payable _currentOwner,\n\n        ) = findArt(_tokenId);\n        require(_currentOwner != address(0), \"\");\n        require(msg.sender != address(0), \"\");\n        require(msg.sender != _currentOwner, \"\");\n        require(msg.value >= _price, \"\");\n        require(arts[_tokenId].owner != address(0), \"\");\n\n        _transfer(_currentOwner, msg.sender, _tokenId);\n\n        if (msg.value > _price) msg.sender.transfer(msg.value - _price);\n\n        _currentOwner.transfer(_price);\n\n        arts[_tokenId].owner = msg.sender;\n        arts[_tokenId].status = 0;\n        ArtTxn memory _artTxn = ArtTxn({\n            id: _id,\n            price: _price,\n            seller: _currentOwner,\n            buyer: msg.sender,\n            txnDate: now,\n            status: _status\n        });\n\n        artTxns[_id].push(_artTxn);\n        pendingArtCount--;\n\n        emit LogArtSold(\n            _tokenId,\n            _title,\n            _authorName,\n            _price,\n            _author,\n            _currentOwner,\n            msg.sender\n        );\n    }\n\n    function resellArt(uint256 _tokenId, uint256 _price) public payable {\n        require(msg.sender != address(0), \"\");\n        require(isOwnerOf(_tokenId, msg.sender), \"\");\n        arts[_tokenId].status = 1;\n        arts[_tokenId].price = _price;\n        pendingArtCount++;\n        emit LogArtResell(_tokenId, 1, _price);\n    }\n\n    function findArt(uint256 _tokenId)\n        public\n        view\n        returns (\n            uint256,\n            string memory,\n            string memory,\n            uint256,\n            uint256 status,\n            string memory,\n            string memory,\n            address,\n            address payable,\n            string memory\n        )\n    {\n        Art memory art = arts[_tokenId];\n        return (\n            art.id,\n            art.title,\n            art.description,\n            art.price,\n            art.status,\n            art.date,\n            art.authorName,\n            art.author,\n            art.owner,\n            art.image\n        );\n    }\n\n    function findAllArt()\n        public\n        view\n        returns (\n            uint256[] memory,\n            address[] memory,\n            address[] memory,\n            uint256[] memory\n        )\n    {\n        uint256 arrLength = arts.length;\n        uint256[] memory ids = new uint256[](arrLength);\n        address[] memory authors = new address[](arrLength);\n        address[] memory owners = new address[](arrLength);\n        uint256[] memory status = new uint256[](arrLength);\n        for (uint256 i = 0; i < arrLength; ++i) {\n            Art memory art = arts[i];\n            ids[i] = art.id;\n            authors[i] = art.author;\n            owners[i] = art.owner;\n            status[i] = art.status;\n        }\n        return (ids, authors, owners, status);\n    }\n\n    function findAllPendingArt()\n        public\n        view\n        returns (\n            uint256[] memory,\n            address[] memory,\n            address[] memory,\n            uint256[] memory\n        )\n    {\n        if (pendingArtCount == 0) {\n            return (\n                new uint256[](0),\n                new address[](0),\n                new address[](0),\n                new uint256[](0)\n            );\n        } else {\n            uint256 arrLength = arts.length;\n            uint256[] memory ids = new uint256[](arrLength);\n            address[] memory authors = new address[](arrLength);\n            address[] memory owners = new address[](arrLength);\n            uint256[] memory status = new uint256[](arrLength);\n            uint256 idx = 0;\n\n            for (uint256 i = 0; i < arrLength; ++i) {\n                Art memory art = arts[i];\n                if (art.status == 1) {\n                    ids[idx] = art.id;\n                    authors[idx] = art.author;\n                    owners[idx] = art.owner;\n                    status[idx] = art.status;\n                    idx++;\n                }\n            }\n            return (ids, authors, owners, status);\n        }\n    }\n\n    function findMyArts() public view returns (uint256[] memory _myArts) {\n        require(msg.sender != address(0), \"\");\n        uint256 numOfTokens = balanceOf(msg.sender);\n        if (numOfTokens == 0) {\n            return new uint256[](0);\n        } else {\n            uint256[] memory myArts = new uint256[](numOfTokens);\n            uint256 idx = 0;\n            uint256 arrLength = arts.length;\n            for (uint256 i = 0; i < arrLength; i++) {\n                if (_tokenOwner[i] == msg.sender) {\n                    myArts[idx] = i;\n                    idx++;\n                }\n            }\n            return myArts;\n        }\n    }\n\n    function getArtAllTxn(uint256 _tokenId)\n        public\n        view\n        returns (\n            uint256[] memory _id,\n            uint256[] memory _price,\n            address[] memory seller,\n            address[] memory buyer,\n            uint256[] memory _txnDate\n        )\n    {\n        ArtTxn[] memory artTxnList = artTxns[_tokenId];\n        uint256 arrLength = artTxnList.length;\n        uint256[] memory ids = new uint256[](arrLength);\n        uint256[] memory prices = new uint256[](arrLength);\n        address[] memory sellers = new address[](arrLength);\n        address[] memory buyers = new address[](arrLength);\n        uint256[] memory txnDates = new uint256[](arrLength);\n        for (uint256 i = 0; i < artTxnList.length; i++) {\n            ArtTxn memory artTxn = artTxnList[i];\n            ids[i] = artTxn.id;\n            prices[i] = artTxn.price;\n            sellers[i] = artTxn.seller;\n            buyers[i] = artTxn.buyer;\n            txnDates[i] = artTxn.txnDate;\n        }\n        return (ids, prices, sellers, buyers, txnDates);\n    }\n\n    function _exists(uint256 tokenId) internal view returns (bool) {\n        address owner = _tokenOwner[tokenId];\n        return owner != address(0);\n    }\n\n    /** token, token\n     */\n    function _mint(address _to, uint256 tokenId) internal {\n        require(_to != address(0), \"\");\n        require(!_exists(tokenId), \"\");\n        _tokenOwner[tokenId] = _to;\n        _ownedTokenCount[_to]++;\n        emit Transfer(address(0), _to, tokenId);\n    }\n\n    function _transfer(\n        address _from,\n        address _to,\n        uint256 _tokenId\n    ) private {\n        _ownedTokenCount[_to]++;\n        _ownedTokenCount[_from]--;\n        _tokenOwner[_tokenId] = _to;\n        emit Transfer(_from, _to, _tokenId);\n    }\n\n    function isOwnerOf(uint256 tokenId, address account)\n        public\n        view\n        returns (bool)\n    {\n        address owner = _tokenOwner[tokenId];\n        require(owner != address(0), \"\");\n        return owner == account;\n    }\n\n    function isApproved(address _to, uint256 _tokenId)\n        private\n        view\n        returns (bool)\n    {\n        return _tokenApprovals[_tokenId] == _to;\n    }\n\n    function balanceOf(address _owner) public override view returns (uint256) {\n        return _ownedTokenCount[_owner];\n    }\n\n    function ownerOf(uint256 _tokenId)\n        public\n        override\n        view\n        returns (address _owner)\n    {\n        _owner = _tokenOwner[_tokenId];\n    }\n\n    function approve(address _to, uint256 _tokenId) public override {\n        require(isOwnerOf(_tokenId, msg.sender), \"\");\n        _tokenApprovals[_tokenId] = _to;\n        emit Approval(msg.sender, _to, _tokenId);\n    }\n\n    function transferFrom(\n        address _from,\n        address _to,\n        uint256 _tokenId\n    ) public override {\n        require(_to != address(0), \"\");\n        require(isOwnerOf(_tokenId, _from), \"\");\n        require(isApproved(_to, _tokenId), \"\");\n        _transfer(_from, _to, _tokenId);\n    }\n\n    function transfer(address _to, uint256 _tokenId) public {\n        require(_to != address(0), \"\");\n        require(isOwnerOf(_tokenId, msg.sender), \"\");\n        _transfer(msg.sender, _to, _tokenId);\n    }\n\n    function getApproved(uint256 tokenId)\n        public\n        override\n        view\n        returns (address operator)\n    {\n        require(_exists(tokenId), \"\");\n        return _tokenApprovals[tokenId];\n    }\n\n    function setApprovalForAll(address operator, bool _approvaled)\n        public\n        override\n    {\n        require(operator != msg.sender, \"\");\n        _operatorApprovals[msg.sender][operator] == _approvaled;\n        emit ApprovalForAll(msg.sender, operator, _approvaled);\n    }\n\n    function isApprovedForAll(address owner, address operator)\n        public\n        override\n        view\n        returns (bool)\n    {\n        return _operatorApprovals[owner][operator];\n    }\n\n    function safeTransferFrom(\n        address from,\n        address to,\n        uint256 tokenId\n    ) public override {\n        // NOT IMPLEMENTED\n    }\n\n    function safeTransferFrom(\n        address from,\n        address to,\n        uint256 tokenId,\n        byte[] memory data\n    ) public override {\n        // NOT IMPLEMENTED\n    }\n}\n",
  "sourcePath": "/Users/shibaoxu/Documents/dev/learning/learning-blockchain/eth/resume_token/contracts/ResumeToken.sol",
  "compiler": {
    "name": "solc",
    "version": "0.6.8+commit.0bbfe453.Emscripten.clang"
  },
  "schemaVersion": "3.2.0",
  "updatedAt": "2020-05-30T10:24:06.451Z",
  "devdoc": {
    "methods": {}
  },
  "userdoc": {
    "methods": {
      "buyArt(uint256)": {
        "notice": "1. TokenIdArt 2.    3. SenderArt 4.  5. "
      },
      "createAndSellArt(string,string,string,string,uint256,string)": {
        "notice": "1. Art, indexID 2. TokenId 3. senderArt"
      }
    }
  }
}